:020000040800F2
:1000000048080020C5010008EB0C0008570C000848
:10001000E90C00082F080008A915000800000000DE
:10002000000000000000000000000000930F000826
:100030008B0A000800000000690D00083912000852
:10004000DF010008DF010008DF010008DF01000810
:10005000DF010008DF010008DF010008DF01000800
:10006000DF010008DF010008DF010008DF010008F0
:10007000DF010008DF010008DF010008DF010008E0
:10008000DF010008DF010008DF010008DF010008D0
:10009000DF010008DF010008DF010008DF010008C0
:1000A000DF010008DF010008DF010008DF010008B0
:1000B000DF010008DF010008DF010008DF010008A0
:1000C000DF010008DF010008DF010008DF01000890
:1000D000DF010008DF010008DF010008DF01000880
:1000E000DF010008DF010008DF010008DF01000870
:1000F000DF010008DF010008DF010008DF01000860
:10010000DF010008DF010008DF010008DF0100084F
:10011000DF010008DF010008CD120008DF01000840
:10012000DF010008DF010008DF010008DF0100082F
:10013000DF010008DF010008DF010008DF0100081F
:10014000DF010008DF010008DF010008DF0100080F
:10015000DF010008DF010008DF010008DF010008FF
:10016000DF010008DF010008DF010008DF010008EF
:10017000DF010008DF010008DF010008DF010008DF
:10018000DF010008DF010008DF010008DF010008CF
:10019000DF010008DF010008DF010008DF010008BF
:1001A000DF010008DF010008DF010008DFF810D0E0
:1001B00000F084FA00480047B1180008AFF300804F
:1001C000480800200648804706480047FEE7FEE74B
:1001D000FEE7FEE7FEE7FEE7FEE7FEE7FEE7FEE7F7
:1001E0007D120008AD0100082DE9FE4F804681EA2E
:1001F0000300C00F0C46009021F0004123F00045A1
:10020000B8EB0200A94105D24046214690461C4663
:100210000B46024623F00040104347D0270DC7F39A
:100220000A00C3F30A510290401A019040286BDA89
:10023000C3F3130040F4801B0098924620B10023C2
:10024000D2EB030A63EB0B0B01985946C0F1400255
:10025000504600F08DF906460D4650465946019A23
:1002600000F0A5F910EB08006141002487EA115263
:1002700084EAE7731A4340D0009A62B3019A012AD4
:100280004FEA075215DC001B61EB02014FF0004200
:1002900002EA0752CDE90042001C41F580113246C6
:1002A0002B4600F0A5F903B0BDE8F08F404621468B
:1002B000F9E7001B61EB0201001C41F580130018F7
:1002C0005B412018A2F5001747EB030140EAD57007
:1002D000B6196D4111E06D084FEA360645EAC07562
:1002E0004FEA0752001B61EB0201001C41F580112F
:1002F00049084FEA30000019514132462B4603B0FD
:10030000BDE8F04F00F065B90098012240000023DD
:10031000D0EB020263EBE073009821464FEAE074F1
:10032000B8EB000061EB0401E9E783F000435BE711
:1003300081F0004158E72DE9FE4F81EA030404F003
:10034000004421F0004100944FF0000B23F00043E3
:1003500050EA01045ED052EA03045BD0C3F30A54AE
:10036000C1F30A552C44A4F2F3340194A0FB0254C7
:10037000C1F3130141F48011C3F3130343F4801359
:1003800001FB024400FB034E840A970A44EA8154AD
:1003900047EA8357A4FB076802958D0A05FB07858A
:1003A0004FEA932C04FB0C542705029D4FEA065894
:1003B00047EA1637B5EB08056EEB070C870E920E71
:1003C00047EA811742EA8312A7FB0201B6EB0B0151
:1003D00064EB00042B0D43EA0C335E1844EB1C5015
:1003E000DA465146E7FB0201C5F313044FEA0B332B
:1003F00043EA14534FEA0432019C43EA0603A4F192
:100400000C040294009CCDE900B400F0F1F803B0B4
:10041000BDE8F08F00200146F9E72DE9F04D81EAB3
:10042000030404F0004B21F0004514464FF0000A8D
:1004300023F0004150EA050220D054EA01021DD009
:10044000C5F30A570246C5F31303C1F31300C1F302
:100450000A5640F4801543F48013A7EB0608101BDE
:10046000D64608F2FD3873EB050002D308F1010807
:1004700001E092185B41B8F1000F03DA0020014659
:10048000BDE8F08D00204FF48011064684460EE052
:10049000171B73EB050705D3121B63EB050306431C
:1004A0004CEA010C49084FEA300092185B4150EACF
:1004B0000107EDD152EA030012D082EA040083EA78
:1004C0000501084305D0101BAB4106D201220023D1
:1004D00006E000224FF0004302E06FF001025310EB
:1004E0001AEB06004CEB085110EB0A0041EB0B0134
:1004F000BDE8F04D00F06DB80EB540F23341029109
:100500000021CDE900110A460B4600F071F803B056
:1005100000BDC1F30A5210B5C1F3130140F2FF331D
:1005200041F480119A4201DA002010BD40F23343B9
:100530009A42A2F2334203DC524200F028F810BD86
:10054000904010BD30B50B4601460020202201240A
:1005500009E021FA02F59D4205D303FA02F5491B91
:1005600004FA02F52844151EA2F10102F1DC30BDA7
:10057000202A04DB203A00FA02F100207047914063
:10058000C2F1200320FA03F3194390407047202A58
:1005900004DB203A21FA02F00021704721FA02F32D
:1005A000D040C2F120029140084319467047202AEA
:1005B00006DBCB17203A41FA02F043EAE07306E08B
:1005C00041FA02F3D040C2F120029140084319469B
:1005D000704710B5141E73F1000408DA401C41F195
:1005E000000192185B411A4301D120F0010010BDB7
:1005F0002DE9F04D92469B4611B1B1FA81F202E02D
:10060000B0FA80F220329046FFF7B2FF04460F4660
:1006100040EA0A0041EA0B0153465A46084313D008
:10062000114653EA010019D0C8F140025046FFF7C5
:10063000AEFF05460E46504659464246FFF798FF24
:10064000084305D0012004E020463946BDE8F08D7E
:100650000020054346EAE0762C4337430A986305B9
:10066000E40AA0EB08000022FD0A44EA47540A30DD
:1006700002D500200146E9E7010510196941DDE9CD
:10068000084500196941BDE8F04DA2E730B5041EE8
:1006900071F1000404DB4FF00044404264EB0101BF
:1006A000141E73F1000405DB1C464FF00043524258
:1006B00063EB0403994208BF904230BD064C074DDE
:1006C00006E0E06840F0010394E807009847103422
:1006D000AC42F6D3FFF76EFD3C1D00085C1D000820
:1006E000002904D0816841F0010181607047816870
:1006F00021F001018160704710B5074C226807495D
:100700000A40D0E900131943D0E9023003431943EA
:100710001143216010BD000004230140E030FCFFC4
:10072000002904D0816841F480718160704781683C
:1007300021F4807181607047002904D0816841F400
:10074000007181607047816821F400718160704799
:1007500030B542680F4B1A400C790B6842EA04220C
:100760001343436083680C4A1340D1E90342224398
:100770004D798C6844EA450422431A438260C26A78
:1007800022F47002097D491EC9B242EA0151C162D8
:1007900030BD0000FFFEFFFCFDF7FFC070B507266F
:1007A00009290AD9C568A1F10A0404EB4404A6404A
:1007B000B543A3401D43C56007E0056901EB410453
:1007C000A640B543A3401D4305611F23072A09D254
:1007D000446B521E02EB820293409C4391400C43B7
:1007E000446370BD0D2A09D2046BD21F02EB820252
:1007F00093409C4391400C43046370BDC46A0D3A1E
:1008000002EB820293409C4391400C43C46270BD52
:10081000816841F080418160704700210160017171
:1008200041718160C1600161012101757047FEE77E
:10083000002904D0016841F001010160704701689E
:1008400021F001010160704730B50368124A13407E
:10085000CC680A682243D1E905452C432243CC6980
:1008600022430C6A22434C6A22438C6A22434C6B1B
:1008700022438C6B22431A430260426922F0070331
:10088000D1E90B2422431A4342610A6942604A6853
:1008900082608968C16030BD3F801CF010B504469D
:1008A00000F03EFC802000F07BFC204600F078FC4D
:1008B00000F036FC812000F073FC002000F0D4FB37
:1008C000044600F04AFC204610BD70B504460D46B3
:1008D00000F026FC6006000E00F062FC284600F0E6
:1008E0005FFC00F01DFC012000EB4400C0B200F0F2
:1008F00057FC002000F0B8FB044600F02EFC204618
:1009000070BD2DE9F0410746884615461E46002475
:1009100000F006FC7806000E00F042FC404600F0B5
:100920003FFC00F0FDFB012000EB4700C0B200F0EF
:1009300037FCAF1EA5F101080FE0012000F094FB89
:1009400026F81400BC4206D1002000F08DFB26F8EA
:100950001800641CE4B2641CE4B2AC42EDD3BDE800
:10096000F04100F0FABB70B505460C4600F0D8FB2C
:10097000802000F015FC284600F012FC204600F014
:100980000FFCBDE8704000F0E8BB70B504460D46B2
:10099000164600F0C5FB6006000E00F001FC28467C
:1009A00000F0FEFB304600F0FBFBBDE8704000F0BD
:1009B000D4BB2DE9F047894614469A4600254FEAF4
:1009C0001A160AF00F084700002E41D000F0A8FBCD
:1009D000F8B200F0E5FB484600F0E2FB0025208875
:1009E000000A00F0DDFB2088C0B200F0D9FBA41C97
:1009F0006D1CEDB2082DF2D300F0AFFB09F1100928
:100A000009F0FF09761EF6B2642000F08BF8002E84
:100A1000DCD1B8F1000F36D000F082FBF8B200F064
:100A2000BFFB484600F0BCFB00250AE02088000A16
:100A300000F0B6FB2088C0B200F0B2FBA41C6D1C15
:100A4000EDB2B5EB580FF1D3BDE8F04700F085BB30
:100A500000F066FBF8B200F0A3FB484600F0A0FBF4
:100A60000AE02088000A00F09BFB2088C0B200F05A
:100A700097FBA41C6D1CEDB2B5EB5A0FF1D3BDE88A
:100A8000F04700F06ABBBDE8F087704770B586B0EC
:100A90000121084600F06AF90121102000F082F9D6
:100AA0001E4E07220A21304600F0BAF8072209211B
:100AB000304600F0B5F800248DF8164001208DF87E
:100AC000170002258DF81450410204918DF815503D
:100AD00004A9304600F066F88DF8145068020490BE
:100AE00004A9304600F05EF84FF4E1300090ADF814
:100AF0000440ADF80640ADF80840ADF80C400C20BD
:100B0000ADF80A00064C6946204600F0EBFC0121D6
:100B1000204600F0D3FC06B070BD0000000002408B
:100B20000010014011B500224FF47A7405E0204610
:100B300000F008F80099491E009100998A42F6D306
:100B400018BD000001B50348009901600168002943
:100B5000FCD108BD300000201CB5012140F2051079
:100B600000F004F90121880300F01CF90120009035
:100B700000248DF804408DF807406946074800F0CE
:100B800011F84FF4005000908DF804408DF80740A4
:100B90006946034800F006F81CBD00000000024052
:100BA000000802402DE9F041002201274FF0030C1C
:100BB00007FA02F50B682B40AB422CD106685300B4
:100BC0000CFA03F4A64306600E79D0F800809E402C
:100BD00046EA080606600E79012E01D0022E12D1D7
:100BE0008668A64386604E79D0F808809E4046EA23
:100BF000080686604668AE43466045688E79964032
:100C0000B6B235434560C568A543C560CC799C4004
:100C1000C3681C43C460521C102AC9D3BDE8F081CC
:100C200010B54B07DB0E9A40C90800EB8100016A42
:100C30000F249C40A1430162016A1143016210BD6F
:100C40000246002012690A4200D001207047418309
:100C5000704701837047FEE71CB50121042000F0B6
:100C600085F8C020009002208DF8050001208DF845
:100C700006008DF8040000208DF807006946024840
:100C8000FFF790FF1CBD0000000802402DE9FC4169
:100C90000121802000F06AF84FF480640094012064
:100CA0008DF8040000218DF806108DF807008DF8EE
:100CB00005100C4F69463846FFF774FF6600009632
:100CC00069463846FFF76EFFA5000095694638462D
:100CD000FFF768FF03481830048006800580BDE8F0
:100CE000FC810000001C0240FEE7704730B50F2376
:100CF000C27801250178002A1FD0154A126802F433
:100D0000E062C2F5E062C2F30722C2F10404D340FC
:100D10004278A24084781C401443220101F1E02172
:100D200081F80024007800F01F018D404009800008
:100D300000F1E020C0F8005130BD01F01F008540F7
:100D40004809800000F1E020C0F8805130BD00006B
:100D50000CED00E0024908430249086070470000BA
:100D60000000FA050CED00E070470000054A00297C
:100D700003D011680143116070471168814311600D
:100D80007047000030380240054A002903D011683E
:100D90000143116070471168814311607047000082
:100DA00040380240054A002903D011680143116010
:100DB0007047116881431160704700004438024059
:100DC00070B5244B196801F00C01234C00291ED08A
:100DD000224E04291DD008291DD00460196801F095
:100DE000F00109091E4A545C0168E14041601C6839
:100DF00004F4E054A40A145D21FA04F484601B682E
:100E000003F460435B0BD25CD140C16070BD0460F1
:100E1000E4E70660E2E70F4A121F1168C1F380554C
:100E2000116801F03F0135B1B6FBF1F11468C4F36C
:100E30008814614305E0B4FBF1F11468C4F388142D
:100E400061431268C2F30142521C5200B1FBF2F13D
:100E50000160C3E7083802400024F40040787D01B7
:100E6000140000201CB501210846FFF77FFFF02089
:100E7000009003208DF8040000208DF807006946DB
:100E80000148FFF78FFE1CBD000002402DE9F04134
:100E90009AB001218805FFF769FF37480C90374861
:100EA0000D9000240E9404270F971094380211908F
:100EB0004000129080001390461114960001159086
:100EC000169401251795189419940B94DFF8B080A7
:100ED0000BA94046FFF7B8FC01214046FFF7A8FCEC
:100EE00001213046FFF75EFF01944FF4403002903D
:100EF00003944FF47060049001A8FFF7FDFB05A870
:100F0000FFF78BFC05948DF818508DF81950079455
:100F1000089409948DF82870174C05A94C3C20467C
:100F2000FFF716FC0723012204212046FFF736FCB9
:100F30000723022205212046FFF730FC0723032266
:100F400006212046FFF72AFC0723042219462046E3
:100F5000FFF724FC01212046FFF7EEFB012120468C
:100F6000FFF7DEFB01212046FFF7BAFB2046FFF723
:100F70004FFC1AB0BDE8F0814C2001403400002045
:100F80001064024010B5FFF76DFFBDE81040FFF799
:100F90007DBF70471CB50021019100912E4A106859
:100FA00040F4803010604FF4A043106800F400302B
:100FB00000900198401C0190009810B90198984247
:100FC000F3D11068800302D50120009000E0009169
:100FD000009801283FD120484030016841F08051FD
:100FE00001601E49086840F4404008601A48083013
:100FF00003680360036843F400430360036843F439
:10100000A0530360041F164B2360136843F08073E2
:10101000136013689B01FCD50A6842F480320A60B1
:101020004A68D203FCD50A6842F400320A604A6872
:101030009203FCD50B4A40F205711160016821F062
:1010400003010160016841F0020101600168C1F320
:1010500081010229FAD11CBD003802400070004015
:10106000195A4007003C02402DE9F0410646082588
:1010700000240121402000F03DF81D4F16E0002122
:10108000802000F037F80220FFF75CFD012180206E
:1010900000F030F80220FFF755FD6006040E4021F5
:1010A0003846FFF7CDFD08B144F001046D1EEDB2E6
:1010B000E5D20021802000F01DF8A6B100214020DB
:1010C00000F018F80220FFF73DFD0121802000F01C
:1010D00011F80220FFF736FD0021802000F00AF809
:1010E0002046BDE8F0810121402000F003F8E9E747
:1010F0000008024070B506460C46084D012C03D18D
:1011000031462846FFF7A5FD002C05D1314628467B
:10111000BDE87040FFF79BBD70BD000000080240B5
:1011200010B500218020FFF7E5FF01214020FFF7E7
:10113000E1FF01218020FFF7DDFF0220FFF702FD24
:1011400000214020FFF7D6FF0220FFF7FBFC002123
:10115000BDE810408020FFF7CDBF10B500218020F2
:10116000FFF7C8FF00214020FFF7C4FF0220FFF770
:10117000E9FC01218020FFF7BDFF0220FFF7E2FC20
:1011800001214020FFF7B6FF0220FFF7DBFC002122
:101190008020FFF7AFFFBDE810400220FFF7D2BC70
:1011A00070B5054608241AE000218020FFF7A2FF51
:1011B000280604D501214020FFF79CFF03E0002111
:1011C0004020FFF797FF0220FFF7BCFC01218020A1
:1011D000FFF790FF0220FFF7B5FC6806050E641EBE
:1011E000E4B2E1D200218020FFF784FF01214020FA
:1011F000FFF780FFFF240F4D0220FFF7A3FC4021E3
:101200002846FFF71DFD28B1641EE4B2002CF3D17F
:10121000002070BD01218020FFF76CFF0220FFF746
:1012200091FC00218020FFF765FF0220FFF78AFC78
:10123000012070BD0008024000F036B90C480D498D
:101240000068B0FBF1F0401EB0F1807F01D30120B7
:101250000AE04FF0E0214861074AF02010700020BA
:101260008861072008610020002800D0FEE7704751
:101270000000002040420F0023ED00E010B50F48B1
:10128000016841F0010101600C4A0021083211603F
:1012900002680B4B1A400260031D0A4A1A6002687A
:1012A00022F48022026005480C300160FFF772FED4
:1012B00005494FF00060086010BD00000038024092
:1012C000FFFFF6FE1030002408ED00E02DE9F047A6
:1012D00001211E48FFF7B4FC81464FF400511C4821
:1012E000FFF7AEFC8046022501260027194CB9F114
:1012F000010F07D06188642908D9257016A000F075
:1013000055F90AE06088401C608007E00B395929D4
:1013100003D2267014A000F049F96780B8F1010FDC
:1013200004D0A088642805D9657007E0A088401C17
:10133000A08004E00B38592800D26670A780BDE871
:10134000F04701210C4800F01CB8000000000240EA
:1013500000080240280000206B65795F666C6167B9
:10136000203D3D20320D0A006B65795F666C616738
:10137000203D3D20310D0A0000100040C94301828C
:101380007047C94301827047002904D0018841F0A9
:10139000010101807047018821F00101018070473F
:1013A000002A03D082890A438281704782898A4356
:1013B000828170473EB501211020FFF7E5FC132024
:1013C00001904AF6C770ADF80000094C6946204606
:1013D00000F010F801212046FFF7D0FF012211464E
:1013E0002046FFF7DDFF01212046FFF7CDFF3EBD80
:1013F0000010004030B50288164C174DA0420DD0A9
:10140000A8420BD0B0F1804F08D0144B984205D0C1
:10141000134B984202D0134B984203D122F0700331
:101420004A881A43104B984206D0104B984203D07A
:1014300022F440730A891A4302804A68C2620A8809
:101440000285A04201D0A84201D1897A01860121FA
:10145000818230BD000001400004014000040040D2
:1014600000080040000C0040001000400014004044
:1014700010B500F004F8BDE81040FFF79BBF08B5B9
:101480004FF4E060FFF766FC36208DF80000002086
:101490008DF8010003208DF8020001208DF8030073
:1014A0006846FFF723FC08BD03480168002902D005
:1014B0000168491E0160704730000020002904D0F7
:1014C000818941F4005181817047818921F4005163
:1014D000818170470246002012880A4200D0012014
:1014E000704700007FB504460D46208A20F4405125
:1014F000E88808432082A08941F20C618843A988CA
:101500002A8911436A8902431143A181A08A20F4E8
:101510004071A8890843A0826846FFF751FC1E4825
:10152000844202D01D48844201D1039800E0029811
:10153000A189090408D500EBC00101EB001029685E
:101540004900B0FBF1F007E000EBC00101EB001037
:1015500029688900B0FBF1F06422B0FBF2F10901C7
:101560000B096FF018056B4300EB8300A3891D0482
:101570004FF0320307D503EBC000B0FBF2F000F0F0
:101580000700084306E003EB0010B0FBF2F000F0A8
:101590000F00084320817FBD00100140001401406E
:1015A000C1F3080181807047FEE700000FB4054BCE
:1015B00010B503A9044A029800F018F810BC5DF8B1
:1015C00014FB00001D1800084400002002E008C8B9
:1015D000121F08C1002AFAD170477047002001E0AD
:1015E00001C1121F002AFBD1704700002DE9FF4FF7
:1015F00089B09B460446002506E025280BD05A46B4
:101600000B999047641C6D1C20780028F5D10DB013
:101610002846BDE8F08F0027B8460122474900E080
:10162000074314F8013F203B02FA03F00842F7D1C8
:1016300020782E2819D114F8010F47F004072A2822
:101640000ED06FF02F022078A0F1300109290CD8BC
:1016500008EB880102EB410100EB0108641CF2E792
:101660000A98641C50F8048B0A9020780028CED089
:10167000642808D0692806D075281ED05A460B99D0
:1016800090476D1C58E00A994FF00A0901C90A9168
:10169000002802DA40422D2102E0390504D52B2131
:1016A0008DF82010012103E0F90704D02021F7E78D
:1016B0008A4608AE0DE00021FAE70A994FF00A09C0
:1016C00001C90A91F7E74946FEF73CFF303106F8B9
:1016D000011D0028F7D1ADEB060000F120097807C5
:1016E00001D44FF00108C84502DDA8EB090000E075
:1016F00000208046002706E008A85A46C05D0B99E6
:1017000090476D1C7F1C5745F6DB04E030205A469D
:101710000B9990476D1CB8F10001A8F10108F5DCA8
:1017200005E016F8010B5A460B9990476D1CB9F16C
:101730000001A9F10109F4DC641C65E70928010036
:101740002DE9F041C1F30A52A2F2FF362F4A304B85
:101750000D460446142E2FDA002E12DAFEF744FD51
:1017600000221346FEF792FF4CD2002DA4BF0024A6
:10177000254647DA25F00040204318BF254D41D0CB
:1017800018E0DFF894C02CFA06F705EA070C5CEACB
:10179000040C08BFBDE8F081FEF726FD00221346C9
:1017A000FEF774FF2ED2002D03DA4FF48010F040C4
:1017B0000544BD43002425E0332EC8BFBDE8F081B9
:1017C000A6F1140C4FF0FF3727FA0CF73C4208BF84
:1017D000BDE8F081FEF7ACFD00221346FEF756FF90
:1017E00010D2002D0DDA142E08BF6D1C09D0C6F1E1
:1017F0003400012101FA00F02044A04238BF6D1CE2
:101800000446BC4329462046BDE8F0819C7500880B
:101810003CE4377E0000F0BFFFFF0F0070B50446C8
:10182000064DE1B22846FFF7BBFE80212846FFF7B0
:1018300051FE0028F9D0204670BD00000010014084
:101840002DE9FC470020009001900024DFF85C8027
:10185000154E6F4608F10809002500213046FEF7B5
:101860005FFF37F8140038F81410084427F8140004
:1018700001213046FEF754FF6D1CEDB20A2DECD36A
:1018800037F814004FF4997148434FF42041B0FBEE
:10189000F1F0673029F81400641CE4B2042CDBD3A7
:1018A00039F81400BDE8FC87002001403400002016
:1018B000ADF5007DFFF750F9FFF7DAFDFFF7BEFC4D
:1018C000FFF7E4F9FFF7E2F8FFF75CFBC5484FF4D8
:1018D0008068A0F800804FF40069A0F80090C14F24
:1018E0008014BF1C3880FFF7B7F900210846FFF7C6
:1018F0003AF80220FFF716F9002211464120FFF7BF
:1019000044F8362000F0DEF9FFF79AFFB64C228843
:101910000021084600F0B4F90220FFF703F96288BD
:101920000021012000F0ACF90220FFF7FBF8A288AB
:101930000021022000F0A4F90220FFF7F3F8E2886A
:101940000021032000F09CF90220FFF7EBF8DFF8FC
:101950009CB29BF8000001283ED1A5484178491C63
:1019600041700024002520E09F4830F81530A04940
:10197000A04A087822F81030401C08706D1CEDB2A7
:10198000641CE4B2A7F80080964EA6F800904FF4CD
:10199000805AA6F800A04FF49670FFF7C3F8A6F897
:1019A0000080A7F80090A6F800A0042CDCD10A2043
:1019B000FFF7B8F800248F4D35F8142021468EA08B
:1019C000FFF7F4FD1E20FFF7ADF8641CE4B2142C01
:1019D000F2D300208BF800009BF8000002283BD1D6
:1019E000834D844A00216878C006030E5020FEF71C
:1019F000E0FF1420FFF796F86878FC21C006020E7D
:101A00005020FEF7C2FF6878C10080A0FFF7CEFD2E
:101A1000A7F80080A7F8009072494FF48050088022
:101A20000024744E0AE036F8142021467BA0FFF70C
:101A3000BDFD1420FFF776F8641CE4B26878B4EBBF
:101A4000800FF0D370A0FFF7B1FD4FF4FA70FFF7ED
:101A500069F800208BF80000744E4FE00025FC214F
:101A60005020FEF732FFDFF888A1AAF802000146F5
:101A70006FA0FFF79BFD724BBAF8022000215020A7
:101A8000FEF73FFF6FA0FFF791FD0024DFF8B0B134
:101A900007E03BF8142021466FA0FFF787FD641C88
:101AA000E4B2BAF802008442F3D357A0FFF77EFDF8
:101AB000A7F80080A7F800904FF4805038800024E9
:101AC00015E03BF81400C0B2611C3BF81110C9B21C
:101AD000A41CE4B241EA00222DF81520294660A09A
:101AE000FFF764FD6D1CEDB20220FFF71BF8BAF89A
:101AF0000200401E8442E4DB002030703078012870
:101B0000ACD00024002567E03948418858A0FFF791
:101B10004DFD00216E463DF81420084600F0B0F857
:101B200036F814103BA0FFF741FD4FF4FA70FEF7B2
:101B3000F9FFA7F80080DFF8ACB0ABF800904FF4E5
:101B40008050ABF80000601C002136F81020012006
:101B500000F096F84FF4FA70FEF7E4FFA01C0021A5
:101B600036F81020022000F08BF84FF4FA70FEF7E0
:101B7000D9FF04F1030A002136F81A20032000F0EF
:101B80007FF84FF4FA70FEF7CDFF36F81A1021A057
:101B9000FFF70CFD241DE4B26D1CEDB21448408823
:101BA000B5EBD00F01D100240025ABF80080A7F8D9
:101BB00000904FF48056ABF800601C480178012972
:101BC0000AD1002101704FF4FA70FEF7ABFFABF8B9
:101BD0000080ABF800903E801448007802287FF423
:101BE00093AE91E7181C02403C0000202800002022
:101BF0002400002048000020D0B4C8EBBBBAB4E6F3
:101C0000D6B52564A3BA25640D0A00004E756D4F44
:101C10006657A3BA25640D0A00000000D0B4C8EBD3
:101C2000CDEAB3C92564A3BA2564090029000020C0
:101C30006C656E675F646174613A25640D0A00002B
:101C400048020020B6C1C8A1D4ADCABCCAFDBEDDE1
:101C5000A3BA0D0A0000000025642D2564090000C8
:101C60007472616E735B25645D3A25640D0A000031
:101C7000B6AFD7F7CAFDA3BA25640D0A000000006D
:101C800070B504460D461646062000EB8400E9B206
:101C9000C0B2FEF768FE072000EB8400290AC0B23C
:101CA000FEF761FE082000EB8400F1B2C0B2FEF73F
:101CB0005AFE310A092000EB8400BDE87040C0B232
:101CC000FEF751BE70B50003FEF716FC174A184B1D
:101CD000FEF731FB02460B4600201649FEF79DFB3E
:101CE0000022154BFEF780FAFFF72AFDFEF711FCE4
:101CF000401EC5B20020FEF7D1FD044604F07F006F
:101D000040F010010020FEF72EFE2946FE20FEF7CF
:101D10002AFE21460020FEF726FE0520FEF702FFE0
:101D2000BDE87040A1210020FEF71DBE48E17A14F5
:101D3000AE47ED3F84D777410000E03F5C1D0008CF
:101D40000000002048000000CC150008A41D000879
:101D50004800002000080000DC1500080095BA0AC1
:101D6000000000000000000001020304060708094B
:101D70000000000001020304010203040607080931
:101D80000000000000000000000000000000000053
:101D90000000000000000000000000000000000043
:041DA000000000003F
:04000005080001AD41
:00000001FF
